{
  "_format": "hh-sol-artifact-1",
  "contractName": "IdentityVerification",
  "sourceName": "contracts/IdentityVerification.sol",
  "abi": [
    {
      "inputs": [],
      "stateMutability": "nonpayable",
      "type": "constructor"
    },
    {
      "anonymous": false,
      "inputs": [
        {
          "indexed": true,
          "internalType": "address",
          "name": "user",
          "type": "address"
        },
        {
          "indexed": false,
          "internalType": "string",
          "name": "name",
          "type": "string"
        }
      ],
      "name": "IdentityRegistered",
      "type": "event"
    },
    {
      "anonymous": false,
      "inputs": [
        {
          "indexed": true,
          "internalType": "address",
          "name": "user",
          "type": "address"
        },
        {
          "indexed": false,
          "internalType": "uint256",
          "name": "timestamp",
          "type": "uint256"
        }
      ],
      "name": "IdentityVerified",
      "type": "event"
    },
    {
      "inputs": [],
      "name": "admin",
      "outputs": [
        {
          "internalType": "address",
          "name": "",
          "type": "address"
        }
      ],
      "stateMutability": "view",
      "type": "function"
    },
    {
      "inputs": [
        {
          "internalType": "address",
          "name": "_user",
          "type": "address"
        }
      ],
      "name": "getIdentity",
      "outputs": [
        {
          "internalType": "string",
          "name": "name",
          "type": "string"
        },
        {
          "internalType": "uint256",
          "name": "dateOfBirth",
          "type": "uint256"
        },
        {
          "internalType": "string",
          "name": "physicalAddress",
          "type": "string"
        },
        {
          "internalType": "string",
          "name": "nationality",
          "type": "string"
        },
        {
          "internalType": "string",
          "name": "idNumber",
          "type": "string"
        },
        {
          "internalType": "bool",
          "name": "isVerified",
          "type": "bool"
        },
        {
          "internalType": "uint256",
          "name": "verificationDate",
          "type": "uint256"
        }
      ],
      "stateMutability": "view",
      "type": "function"
    },
    {
      "inputs": [
        {
          "internalType": "address",
          "name": "",
          "type": "address"
        }
      ],
      "name": "identities",
      "outputs": [
        {
          "internalType": "string",
          "name": "name",
          "type": "string"
        },
        {
          "internalType": "uint256",
          "name": "dateOfBirth",
          "type": "uint256"
        },
        {
          "internalType": "string",
          "name": "physicalAddress",
          "type": "string"
        },
        {
          "internalType": "string",
          "name": "nationality",
          "type": "string"
        },
        {
          "internalType": "string",
          "name": "idNumber",
          "type": "string"
        },
        {
          "internalType": "bool",
          "name": "isVerified",
          "type": "bool"
        },
        {
          "internalType": "uint256",
          "name": "verificationDate",
          "type": "uint256"
        }
      ],
      "stateMutability": "view",
      "type": "function"
    },
    {
      "inputs": [
        {
          "internalType": "address",
          "name": "",
          "type": "address"
        }
      ],
      "name": "isRegistered",
      "outputs": [
        {
          "internalType": "bool",
          "name": "",
          "type": "bool"
        }
      ],
      "stateMutability": "view",
      "type": "function"
    },
    {
      "inputs": [
        {
          "internalType": "string",
          "name": "_name",
          "type": "string"
        },
        {
          "internalType": "uint256",
          "name": "_dateOfBirth",
          "type": "uint256"
        },
        {
          "internalType": "string",
          "name": "_physicalAddress",
          "type": "string"
        },
        {
          "internalType": "string",
          "name": "_nationality",
          "type": "string"
        },
        {
          "internalType": "string",
          "name": "_idNumber",
          "type": "string"
        }
      ],
      "name": "registerIdentity",
      "outputs": [],
      "stateMutability": "nonpayable",
      "type": "function"
    },
    {
      "inputs": [
        {
          "internalType": "address",
          "name": "_user",
          "type": "address"
        }
      ],
      "name": "verifyIdentity",
      "outputs": [],
      "stateMutability": "nonpayable",
      "type": "function"
    }
  ],
  "bytecode": "0x608060405234801561001057600080fd5b50336000806101000a81548173ffffffffffffffffffffffffffffffffffffffff021916908373ffffffffffffffffffffffffffffffffffffffff160217905550611714806100606000396000f3fe608060405234801561001057600080fd5b50600436106100625760003560e01c80632fea7b8114610067578063b5b90fd91461009d578063c35cf5e9146100b9578063c3c5a547146100d5578063f653b81e14610105578063f851a4401461013b575b600080fd5b610081600480360381019061007c9190610d4e565b610159565b6040516100949796959493929190610e3f565b60405180910390f35b6100b760048036038101906100b29190610d4e565b6104f3565b005b6100d360048036038101906100ce919061102b565b61078f565b005b6100ef60048036038101906100ea9190610d4e565b610a16565b6040516100fc9190611116565b60405180910390f35b61011f600480360381019061011a9190610d4e565b610a36565b6040516101329796959493929190610e3f565b60405180910390f35b610143610ca5565b6040516101509190611140565b60405180910390f35b606060006060806060600080600260008973ffffffffffffffffffffffffffffffffffffffff1673ffffffffffffffffffffffffffffffffffffffff16815260200190815260200160002060009054906101000a900460ff166101f1576040517f08c379a00000000000000000000000000000000000000000000000000000000081526004016101e8906111a7565b60405180910390fd5b6000600160008a73ffffffffffffffffffffffffffffffffffffffff1673ffffffffffffffffffffffffffffffffffffffff1681526020019081526020016000206040518060e001604052908160008201805461024d906111f6565b80601f0160208091040260200160405190810160405280929190818152602001828054610279906111f6565b80156102c65780601f1061029b576101008083540402835291602001916102c6565b820191906000526020600020905b8154815290600101906020018083116102a957829003601f168201915b50505050508152602001600182015481526020016002820180546102e9906111f6565b80601f0160208091040260200160405190810160405280929190818152602001828054610315906111f6565b80156103625780601f1061033757610100808354040283529160200191610362565b820191906000526020600020905b81548152906001019060200180831161034557829003601f168201915b5050505050815260200160038201805461037b906111f6565b80601f01602080910402602001604051908101604052809291908181526020018280546103a7906111f6565b80156103f45780601f106103c9576101008083540402835291602001916103f4565b820191906000526020600020905b8154815290600101906020018083116103d757829003601f168201915b5050505050815260200160048201805461040d906111f6565b80601f0160208091040260200160405190810160405280929190818152602001828054610439906111f6565b80156104865780601f1061045b57610100808354040283529160200191610486565b820191906000526020600020905b81548152906001019060200180831161046957829003601f168201915b505050505081526020016005820160009054906101000a900460ff161515151581526020016006820154815250509050806000015181602001518260400151836060015184608001518560a001518660c00151975097509750975097509750975050919395979092949650565b60008054906101000a900473ffffffffffffffffffffffffffffffffffffffff1673ffffffffffffffffffffffffffffffffffffffff163373ffffffffffffffffffffffffffffffffffffffff1614610581576040517f08c379a000000000000000000000000000000000000000000000000000000000815260040161057890611299565b60405180910390fd5b600260008273ffffffffffffffffffffffffffffffffffffffff1673ffffffffffffffffffffffffffffffffffffffff16815260200190815260200160002060009054906101000a900460ff1661060d576040517f08c379a0000000000000000000000000000000000000000000000000000000008152600401610604906111a7565b60405180910390fd5b600160008273ffffffffffffffffffffffffffffffffffffffff1673ffffffffffffffffffffffffffffffffffffffff16815260200190815260200160002060050160009054906101000a900460ff161561069d576040517f08c379a000000000000000000000000000000000000000000000000000000000815260040161069490611305565b60405180910390fd5b60018060008373ffffffffffffffffffffffffffffffffffffffff1673ffffffffffffffffffffffffffffffffffffffff16815260200190815260200160002060050160006101000a81548160ff02191690831515021790555042600160008373ffffffffffffffffffffffffffffffffffffffff1673ffffffffffffffffffffffffffffffffffffffff168152602001908152602001600020600601819055508073ffffffffffffffffffffffffffffffffffffffff167f201a5a9a3e3f6b0c73a6d63220a9d2ef703797c59033d36f0e63f2db8e329007426040516107849190611325565b60405180910390a250565b600260003373ffffffffffffffffffffffffffffffffffffffff1673ffffffffffffffffffffffffffffffffffffffff16815260200190815260200160002060009054906101000a900460ff161561081c576040517f08c379a00000000000000000000000000000000000000000000000000000000081526004016108139061138c565b60405180910390fd5b61082581610cc9565b610864576040517f08c379a000000000000000000000000000000000000000000000000000000000815260040161085b9061141e565b60405180910390fd5b6040518060e001604052808681526020018581526020018481526020018381526020018281526020016000151581526020016000815250600160003373ffffffffffffffffffffffffffffffffffffffff1673ffffffffffffffffffffffffffffffffffffffff16815260200190815260200160002060008201518160000190816108ef91906115ea565b5060208201518160010155604082015181600201908161090f91906115ea565b50606082015181600301908161092591906115ea565b50608082015181600401908161093b91906115ea565b5060a08201518160050160006101000a81548160ff02191690831515021790555060c082015181600601559050506001600260003373ffffffffffffffffffffffffffffffffffffffff1673ffffffffffffffffffffffffffffffffffffffff16815260200190815260200160002060006101000a81548160ff0219169083151502179055503373ffffffffffffffffffffffffffffffffffffffff167f9b6805eb7a1bee8a797c79c5f2a39a182f3d37f8b8cce5ec42371000c8115dfd86604051610a0791906116bc565b60405180910390a25050505050565b60026020528060005260406000206000915054906101000a900460ff1681565b6001602052806000526040600020600091509050806000018054610a59906111f6565b80601f0160208091040260200160405190810160405280929190818152602001828054610a85906111f6565b8015610ad25780601f10610aa757610100808354040283529160200191610ad2565b820191906000526020600020905b815481529060010190602001808311610ab557829003601f168201915b505050505090806001015490806002018054610aed906111f6565b80601f0160208091040260200160405190810160405280929190818152602001828054610b19906111f6565b8015610b665780601f10610b3b57610100808354040283529160200191610b66565b820191906000526020600020905b815481529060010190602001808311610b4957829003601f168201915b505050505090806003018054610b7b906111f6565b80601f0160208091040260200160405190810160405280929190818152602001828054610ba7906111f6565b8015610bf45780601f10610bc957610100808354040283529160200191610bf4565b820191906000526020600020905b815481529060010190602001808311610bd757829003601f168201915b505050505090806004018054610c09906111f6565b80601f0160208091040260200160405190810160405280929190818152602001828054610c35906111f6565b8015610c825780601f10610c5757610100808354040283529160200191610c82565b820191906000526020600020905b815481529060010190602001808311610c6557829003601f168201915b5050505050908060050160009054906101000a900460ff16908060060154905087565b60008054906101000a900473ffffffffffffffffffffffffffffffffffffffff1681565b6000808290506010815114915050919050565b6000604051905090565b600080fd5b600080fd5b600073ffffffffffffffffffffffffffffffffffffffff82169050919050565b6000610d1b82610cf0565b9050919050565b610d2b81610d10565b8114610d3657600080fd5b50565b600081359050610d4881610d22565b92915050565b600060208284031215610d6457610d63610ce6565b5b6000610d7284828501610d39565b91505092915050565b600081519050919050565b600082825260208201905092915050565b60005b83811015610db5578082015181840152602081019050610d9a565b60008484015250505050565b6000601f19601f8301169050919050565b6000610ddd82610d7b565b610de78185610d86565b9350610df7818560208601610d97565b610e0081610dc1565b840191505092915050565b6000819050919050565b610e1e81610e0b565b82525050565b60008115159050919050565b610e3981610e24565b82525050565b600060e0820190508181036000830152610e59818a610dd2565b9050610e686020830189610e15565b8181036040830152610e7a8188610dd2565b90508181036060830152610e8e8187610dd2565b90508181036080830152610ea28186610dd2565b9050610eb160a0830185610e30565b610ebe60c0830184610e15565b98975050505050505050565b600080fd5b600080fd5b7f4e487b7100000000000000000000000000000000000000000000000000000000600052604160045260246000fd5b610f0c82610dc1565b810181811067ffffffffffffffff82111715610f2b57610f2a610ed4565b5b80604052505050565b6000610f3e610cdc565b9050610f4a8282610f03565b919050565b600067ffffffffffffffff821115610f6a57610f69610ed4565b5b610f7382610dc1565b9050602081019050919050565b82818337600083830152505050565b6000610fa2610f9d84610f4f565b610f34565b905082815260208101848484011115610fbe57610fbd610ecf565b5b610fc9848285610f80565b509392505050565b600082601f830112610fe657610fe5610eca565b5b8135610ff6848260208601610f8f565b91505092915050565b61100881610e0b565b811461101357600080fd5b50565b60008135905061102581610fff565b92915050565b600080600080600060a0868803121561104757611046610ce6565b5b600086013567ffffffffffffffff81111561106557611064610ceb565b5b61107188828901610fd1565b955050602061108288828901611016565b945050604086013567ffffffffffffffff8111156110a3576110a2610ceb565b5b6110af88828901610fd1565b935050606086013567ffffffffffffffff8111156110d0576110cf610ceb565b5b6110dc88828901610fd1565b925050608086013567ffffffffffffffff8111156110fd576110fc610ceb565b5b61110988828901610fd1565b9150509295509295909350565b600060208201905061112b6000830184610e30565b92915050565b61113a81610d10565b82525050565b60006020820190506111556000830184611131565b92915050565b7f4964656e74697479206e6f742072656769737465726564000000000000000000600082015250565b6000611191601783610d86565b915061119c8261115b565b602082019050919050565b600060208201905081810360008301526111c081611184565b9050919050565b7f4e487b7100000000000000000000000000000000000000000000000000000000600052602260045260246000fd5b6000600282049050600182168061120e57607f821691505b602082108103611221576112206111c7565b5b50919050565b7f4f6e6c792061646d696e2063616e20706572666f726d2074686973206163746960008201527f6f6e000000000000000000000000000000000000000000000000000000000000602082015250565b6000611283602283610d86565b915061128e82611227565b604082019050919050565b600060208201905081810360008301526112b281611276565b9050919050565b7f4964656e7469747920616c726561647920766572696669656400000000000000600082015250565b60006112ef601983610d86565b91506112fa826112b9565b602082019050919050565b6000602082019050818103600083015261131e816112e2565b9050919050565b600060208201905061133a6000830184610e15565b92915050565b7f4964656e7469747920616c726561647920726567697374657265642121000000600082015250565b6000611376601d83610d86565b915061138182611340565b602082019050919050565b600060208201905081810360008301526113a581611369565b9050919050565b7f4944206e756d626572206d7573742062652065786163746c792031362063686160008201527f7261637465727300000000000000000000000000000000000000000000000000602082015250565b6000611408602783610d86565b9150611413826113ac565b604082019050919050565b60006020820190508181036000830152611437816113fb565b9050919050565b60008190508160005260206000209050919050565b60006020601f8301049050919050565b600082821b905092915050565b6000600883026114a07fffffffffffffffffffffffffffffffffffffffffffffffffffffffffffffffff82611463565b6114aa8683611463565b95508019841693508086168417925050509392505050565b6000819050919050565b60006114e76114e26114dd84610e0b565b6114c2565b610e0b565b9050919050565b6000819050919050565b611501836114cc565b61151561150d826114ee565b848454611470565b825550505050565b600090565b61152a61151d565b6115358184846114f8565b505050565b5b818110156115595761154e600082611522565b60018101905061153b565b5050565b601f82111561159e5761156f8161143e565b61157884611453565b81016020851015611587578190505b61159b61159385611453565b83018261153a565b50505b505050565b600082821c905092915050565b60006115c1600019846008026115a3565b1980831691505092915050565b60006115da83836115b0565b9150826002028217905092915050565b6115f382610d7b565b67ffffffffffffffff81111561160c5761160b610ed4565b5b61161682546111f6565b61162182828561155d565b600060209050601f8311600181146116545760008415611642578287015190505b61164c85826115ce565b8655506116b4565b601f1984166116628661143e565b60005b8281101561168a57848901518255600182019150602085019450602081019050611665565b868310156116a757848901516116a3601f8916826115b0565b8355505b6001600288020188555050505b505050505050565b600060208201905081810360008301526116d68184610dd2565b90509291505056fea2646970667358221220cdf27b5698ac25ac4f6a92bfa6fa90888e8eba0a6fce5bbcc8dd1ff52b8850a364736f6c63430008130033",
  "linkReferences": {},
  "deployedLinkReferences": {}
}